{
  "_format": "hh-sol-artifact-1",
  "contractName": "NFTMarketplace",
  "sourceName": "contracts/NFTMarketplace.sol",
  "abi": [
    {
      "inputs": [],
      "stateMutability": "nonpayable",
      "type": "constructor"
    },
    {
      "anonymous": false,
      "inputs": [
        {
          "indexed": true,
          "internalType": "address",
          "name": "owner",
          "type": "address"
        },
        {
          "indexed": true,
          "internalType": "address",
          "name": "approved",
          "type": "address"
        },
        {
          "indexed": true,
          "internalType": "uint256",
          "name": "tokenId",
          "type": "uint256"
        }
      ],
      "name": "Approval",
      "type": "event"
    },
    {
      "anonymous": false,
      "inputs": [
        {
          "indexed": true,
          "internalType": "address",
          "name": "owner",
          "type": "address"
        },
        {
          "indexed": true,
          "internalType": "address",
          "name": "operator",
          "type": "address"
        },
        {
          "indexed": false,
          "internalType": "bool",
          "name": "approved",
          "type": "bool"
        }
      ],
      "name": "ApprovalForAll",
      "type": "event"
    },
    {
      "anonymous": false,
      "inputs": [
        {
          "indexed": false,
          "internalType": "uint256",
          "name": "_fromTokenId",
          "type": "uint256"
        },
        {
          "indexed": false,
          "internalType": "uint256",
          "name": "_toTokenId",
          "type": "uint256"
        }
      ],
      "name": "BatchMetadataUpdate",
      "type": "event"
    },
    {
      "anonymous": false,
      "inputs": [
        {
          "indexed": false,
          "internalType": "uint256",
          "name": "_tokenId",
          "type": "uint256"
        }
      ],
      "name": "MetadataUpdate",
      "type": "event"
    },
    {
      "anonymous": false,
      "inputs": [
        {
          "indexed": true,
          "internalType": "address",
          "name": "from",
          "type": "address"
        },
        {
          "indexed": true,
          "internalType": "address",
          "name": "to",
          "type": "address"
        },
        {
          "indexed": true,
          "internalType": "uint256",
          "name": "tokenId",
          "type": "uint256"
        }
      ],
      "name": "Transfer",
      "type": "event"
    },
    {
      "anonymous": false,
      "inputs": [
        {
          "indexed": true,
          "internalType": "uint256",
          "name": "tokenId",
          "type": "uint256"
        },
        {
          "indexed": false,
          "internalType": "address",
          "name": "seller",
          "type": "address"
        },
        {
          "indexed": false,
          "internalType": "address",
          "name": "owner",
          "type": "address"
        },
        {
          "indexed": false,
          "internalType": "uint256",
          "name": "price",
          "type": "uint256"
        },
        {
          "indexed": false,
          "internalType": "bool",
          "name": "sold",
          "type": "bool"
        }
      ],
      "name": "idMarketItemCreated",
      "type": "event"
    },
    {
      "inputs": [
        {
          "internalType": "address",
          "name": "to",
          "type": "address"
        },
        {
          "internalType": "uint256",
          "name": "tokenId",
          "type": "uint256"
        }
      ],
      "name": "approve",
      "outputs": [],
      "stateMutability": "nonpayable",
      "type": "function"
    },
    {
      "inputs": [
        {
          "internalType": "address",
          "name": "owner",
          "type": "address"
        }
      ],
      "name": "balanceOf",
      "outputs": [
        {
          "internalType": "uint256",
          "name": "",
          "type": "uint256"
        }
      ],
      "stateMutability": "view",
      "type": "function"
    },
    {
      "inputs": [
        {
          "internalType": "uint256",
          "name": "tokenId",
          "type": "uint256"
        }
      ],
      "name": "createMarketSale",
      "outputs": [],
      "stateMutability": "payable",
      "type": "function"
    },
    {
      "inputs": [
        {
          "internalType": "string",
          "name": "tokenURI",
          "type": "string"
        },
        {
          "internalType": "uint256",
          "name": "price",
          "type": "uint256"
        }
      ],
      "name": "createToken",
      "outputs": [
        {
          "internalType": "uint256",
          "name": "",
          "type": "uint256"
        }
      ],
      "stateMutability": "payable",
      "type": "function"
    },
    {
      "inputs": [],
      "name": "fetchItemsListed",
      "outputs": [
        {
          "components": [
            {
              "internalType": "uint256",
              "name": "tokenId",
              "type": "uint256"
            },
            {
              "internalType": "address payable",
              "name": "seller",
              "type": "address"
            },
            {
              "internalType": "address payable",
              "name": "owner",
              "type": "address"
            },
            {
              "internalType": "uint256",
              "name": "price",
              "type": "uint256"
            },
            {
              "internalType": "bool",
              "name": "sold",
              "type": "bool"
            }
          ],
          "internalType": "struct NFTMarketplace.MarketItem[]",
          "name": "",
          "type": "tuple[]"
        }
      ],
      "stateMutability": "view",
      "type": "function"
    },
    {
      "inputs": [],
      "name": "fetchMarketItem",
      "outputs": [
        {
          "components": [
            {
              "internalType": "uint256",
              "name": "tokenId",
              "type": "uint256"
            },
            {
              "internalType": "address payable",
              "name": "seller",
              "type": "address"
            },
            {
              "internalType": "address payable",
              "name": "owner",
              "type": "address"
            },
            {
              "internalType": "uint256",
              "name": "price",
              "type": "uint256"
            },
            {
              "internalType": "bool",
              "name": "sold",
              "type": "bool"
            }
          ],
          "internalType": "struct NFTMarketplace.MarketItem[]",
          "name": "",
          "type": "tuple[]"
        }
      ],
      "stateMutability": "view",
      "type": "function"
    },
    {
      "inputs": [],
      "name": "fetchMyNFT",
      "outputs": [
        {
          "components": [
            {
              "internalType": "uint256",
              "name": "tokenId",
              "type": "uint256"
            },
            {
              "internalType": "address payable",
              "name": "seller",
              "type": "address"
            },
            {
              "internalType": "address payable",
              "name": "owner",
              "type": "address"
            },
            {
              "internalType": "uint256",
              "name": "price",
              "type": "uint256"
            },
            {
              "internalType": "bool",
              "name": "sold",
              "type": "bool"
            }
          ],
          "internalType": "struct NFTMarketplace.MarketItem[]",
          "name": "",
          "type": "tuple[]"
        }
      ],
      "stateMutability": "view",
      "type": "function"
    },
    {
      "inputs": [
        {
          "internalType": "uint256",
          "name": "tokenId",
          "type": "uint256"
        }
      ],
      "name": "getApproved",
      "outputs": [
        {
          "internalType": "address",
          "name": "",
          "type": "address"
        }
      ],
      "stateMutability": "view",
      "type": "function"
    },
    {
      "inputs": [],
      "name": "getListingPrice",
      "outputs": [
        {
          "internalType": "uint256",
          "name": "",
          "type": "uint256"
        }
      ],
      "stateMutability": "view",
      "type": "function"
    },
    {
      "inputs": [
        {
          "internalType": "uint256",
          "name": "",
          "type": "uint256"
        }
      ],
      "name": "idMarketItem",
      "outputs": [
        {
          "internalType": "uint256",
          "name": "tokenId",
          "type": "uint256"
        },
        {
          "internalType": "address payable",
          "name": "seller",
          "type": "address"
        },
        {
          "internalType": "address payable",
          "name": "owner",
          "type": "address"
        },
        {
          "internalType": "uint256",
          "name": "price",
          "type": "uint256"
        },
        {
          "internalType": "bool",
          "name": "sold",
          "type": "bool"
        }
      ],
      "stateMutability": "view",
      "type": "function"
    },
    {
      "inputs": [
        {
          "internalType": "address",
          "name": "owner",
          "type": "address"
        },
        {
          "internalType": "address",
          "name": "operator",
          "type": "address"
        }
      ],
      "name": "isApprovedForAll",
      "outputs": [
        {
          "internalType": "bool",
          "name": "",
          "type": "bool"
        }
      ],
      "stateMutability": "view",
      "type": "function"
    },
    {
      "inputs": [],
      "name": "name",
      "outputs": [
        {
          "internalType": "string",
          "name": "",
          "type": "string"
        }
      ],
      "stateMutability": "view",
      "type": "function"
    },
    {
      "inputs": [
        {
          "internalType": "uint256",
          "name": "tokenId",
          "type": "uint256"
        }
      ],
      "name": "ownerOf",
      "outputs": [
        {
          "internalType": "address",
          "name": "",
          "type": "address"
        }
      ],
      "stateMutability": "view",
      "type": "function"
    },
    {
      "inputs": [
        {
          "internalType": "uint256",
          "name": "tokenId",
          "type": "uint256"
        },
        {
          "internalType": "uint256",
          "name": "price",
          "type": "uint256"
        }
      ],
      "name": "reSellToken",
      "outputs": [],
      "stateMutability": "payable",
      "type": "function"
    },
    {
      "inputs": [
        {
          "internalType": "address",
          "name": "from",
          "type": "address"
        },
        {
          "internalType": "address",
          "name": "to",
          "type": "address"
        },
        {
          "internalType": "uint256",
          "name": "tokenId",
          "type": "uint256"
        }
      ],
      "name": "safeTransferFrom",
      "outputs": [],
      "stateMutability": "nonpayable",
      "type": "function"
    },
    {
      "inputs": [
        {
          "internalType": "address",
          "name": "from",
          "type": "address"
        },
        {
          "internalType": "address",
          "name": "to",
          "type": "address"
        },
        {
          "internalType": "uint256",
          "name": "tokenId",
          "type": "uint256"
        },
        {
          "internalType": "bytes",
          "name": "data",
          "type": "bytes"
        }
      ],
      "name": "safeTransferFrom",
      "outputs": [],
      "stateMutability": "nonpayable",
      "type": "function"
    },
    {
      "inputs": [
        {
          "internalType": "address",
          "name": "operator",
          "type": "address"
        },
        {
          "internalType": "bool",
          "name": "approved",
          "type": "bool"
        }
      ],
      "name": "setApprovalForAll",
      "outputs": [],
      "stateMutability": "nonpayable",
      "type": "function"
    },
    {
      "inputs": [
        {
          "internalType": "bytes4",
          "name": "interfaceId",
          "type": "bytes4"
        }
      ],
      "name": "supportsInterface",
      "outputs": [
        {
          "internalType": "bool",
          "name": "",
          "type": "bool"
        }
      ],
      "stateMutability": "view",
      "type": "function"
    },
    {
      "inputs": [],
      "name": "symbol",
      "outputs": [
        {
          "internalType": "string",
          "name": "",
          "type": "string"
        }
      ],
      "stateMutability": "view",
      "type": "function"
    },
    {
      "inputs": [
        {
          "internalType": "uint256",
          "name": "tokenId",
          "type": "uint256"
        }
      ],
      "name": "tokenURI",
      "outputs": [
        {
          "internalType": "string",
          "name": "",
          "type": "string"
        }
      ],
      "stateMutability": "view",
      "type": "function"
    },
    {
      "inputs": [
        {
          "internalType": "address",
          "name": "from",
          "type": "address"
        },
        {
          "internalType": "address",
          "name": "to",
          "type": "address"
        },
        {
          "internalType": "uint256",
          "name": "tokenId",
          "type": "uint256"
        }
      ],
      "name": "transferFrom",
      "outputs": [],
      "stateMutability": "nonpayable",
      "type": "function"
    },
    {
      "inputs": [
        {
          "internalType": "uint256",
          "name": "_listingPrice",
          "type": "uint256"
        }
      ],
      "name": "updateListingPrice",
      "outputs": [],
      "stateMutability": "payable",
      "type": "function"
    }
  ],
  "bytecode": "0x60806040526605543df729c0006009553480156200001c57600080fd5b506040518060400160405280601381526020017f4e4654204d657461766572736520546f6b656e000000000000000000000000008152506040518060400160405280600581526020017f4d594e465400000000000000000000000000000000000000000000000000000081525081600090816200009a919062000370565b508060019081620000ac919062000370565b50505033600a60006101000a81548173ffffffffffffffffffffffffffffffffffffffff021916908373ffffffffffffffffffffffffffffffffffffffff16021790555062000457565b600081519050919050565b7f4e487b7100000000000000000000000000000000000000000000000000000000600052604160045260246000fd5b7f4e487b7100000000000000000000000000000000000000000000000000000000600052602260045260246000fd5b600060028204905060018216806200017857607f821691505b6020821081036200018e576200018d62000130565b5b50919050565b60008190508160005260206000209050919050565b60006020601f8301049050919050565b600082821b905092915050565b600060088302620001f87fffffffffffffffffffffffffffffffffffffffffffffffffffffffffffffffff82620001b9565b620002048683620001b9565b95508019841693508086168417925050509392505050565b6000819050919050565b6000819050919050565b6000620002516200024b62000245846200021c565b62000226565b6200021c565b9050919050565b6000819050919050565b6200026d8362000230565b620002856200027c8262000258565b848454620001c6565b825550505050565b600090565b6200029c6200028d565b620002a981848462000262565b505050565b5b81811015620002d157620002c560008262000292565b600181019050620002af565b5050565b601f8211156200032057620002ea8162000194565b620002f584620001a9565b8101602085101562000305578190505b6200031d6200031485620001a9565b830182620002ae565b50505b505050565b600082821c905092915050565b6000620003456000198460080262000325565b1980831691505092915050565b600062000360838362000332565b9150826002028217905092915050565b6200037b82620000f6565b67ffffffffffffffff81111562000397576200039662000101565b5b620003a382546200015f565b620003b0828285620002d5565b600060209050601f831160018114620003e85760008415620003d3578287015190505b620003df858262000352565b8655506200044f565b601f198416620003f88662000194565b60005b828110156200042257848901518255600182019150602085019450602081019050620003fb565b868310156200044257848901516200043e601f89168262000332565b8355505b6001600288020188555050505b505050505050565b6143fb80620004676000396000f3fe6080604052600436106101355760003560e01c806372b3b620116100ab578063ae677aa31161006f578063ae677aa314610436578063b88d4fde14610452578063be9af5361461047b578063c18763f714610497578063c87b56dd146104c2578063e985e9c5146104ff57610135565b806372b3b6201461036b57806385535b251461039b5780638fafd021146103b757806395d89b41146103e2578063a22cb4651461040d57610135565b806312e85585116100fd57806312e855851461024957806323b872dd1461027457806342842e0e1461029d57806345f8fa80146102c65780636352211e146102f157806370a082311461032e57610135565b806301ffc9a71461013a57806306fdde0314610177578063081812fc146101a2578063087ae8a2146101df578063095ea7b314610220575b600080fd5b34801561014657600080fd5b50610161600480360381019061015c9190612c5d565b61053c565b60405161016e9190612ca5565b60405180910390f35b34801561018357600080fd5b5061018c61059d565b6040516101999190612d50565b60405180910390f35b3480156101ae57600080fd5b506101c960048036038101906101c49190612da8565b61062f565b6040516101d69190612e16565b60405180910390f35b3480156101eb57600080fd5b5061020660048036038101906102019190612da8565b610675565b604051610217959493929190612e61565b60405180910390f35b34801561022c57600080fd5b5061024760048036038101906102429190612ee0565b6106f8565b005b34801561025557600080fd5b5061025e61080f565b60405161026b9190612f20565b60405180910390f35b34801561028057600080fd5b5061029b60048036038101906102969190612f3b565b610819565b005b3480156102a957600080fd5b506102c460048036038101906102bf9190612f3b565b610879565b005b3480156102d257600080fd5b506102db610899565b6040516102e891906130d2565b60405180910390f35b3480156102fd57600080fd5b5061031860048036038101906103139190612da8565b610b85565b6040516103259190612e16565b60405180910390f35b34801561033a57600080fd5b50610355600480360381019061035091906130f4565b610c0b565b6040516103629190612f20565b60405180910390f35b61038560048036038101906103809190613256565b610cc2565b6040516103929190612f20565b60405180910390f35b6103b560048036038101906103b091906132b2565b610d04565b005b3480156103c357600080fd5b506103cc610ef9565b6040516103d991906130d2565b60405180910390f35b3480156103ee57600080fd5b506103f7611161565b6040516104049190612d50565b60405180910390f35b34801561041957600080fd5b50610434600480360381019061042f919061331e565b6111f3565b005b610450600480360381019061044b9190612da8565b611209565b005b34801561045e57600080fd5b50610479600480360381019061047491906133ff565b6112a3565b005b61049560048036038101906104909190612da8565b611305565b005b3480156104a357600080fd5b506104ac61153c565b6040516104b991906130d2565b60405180910390f35b3480156104ce57600080fd5b506104e960048036038101906104e49190612da8565b611828565b6040516104f69190612d50565b60405180910390f35b34801561050b57600080fd5b5061052660048036038101906105219190613482565b61193a565b6040516105339190612ca5565b60405180910390f35b6000634906490660e01b7bffffffffffffffffffffffffffffffffffffffffffffffffffffffff1916827bffffffffffffffffffffffffffffffffffffffffffffffffffffffff191614806105965750610595826119ce565b5b9050919050565b6060600080546105ac906134f1565b80601f01602080910402602001604051908101604052809291908181526020018280546105d8906134f1565b80156106255780601f106105fa57610100808354040283529160200191610625565b820191906000526020600020905b81548152906001019060200180831161060857829003601f168201915b5050505050905090565b600061063a82611ab0565b6004600083815260200190815260200160002060009054906101000a900473ffffffffffffffffffffffffffffffffffffffff169050919050565b600b6020528060005260406000206000915090508060000154908060010160009054906101000a900473ffffffffffffffffffffffffffffffffffffffff16908060020160009054906101000a900473ffffffffffffffffffffffffffffffffffffffff16908060030154908060040160009054906101000a900460ff16905085565b600061070382610b85565b90508073ffffffffffffffffffffffffffffffffffffffff168373ffffffffffffffffffffffffffffffffffffffff1603610773576040517f08c379a000000000000000000000000000000000000000000000000000000000815260040161076a90613594565b60405180910390fd5b8073ffffffffffffffffffffffffffffffffffffffff16610792611afb565b73ffffffffffffffffffffffffffffffffffffffff1614806107c157506107c0816107bb611afb565b61193a565b5b610800576040517f08c379a00000000000000000000000000000000000000000000000000000000081526004016107f790613626565b60405180910390fd5b61080a8383611b03565b505050565b6000600954905090565b61082a610824611afb565b82611bbc565b610869576040517f08c379a0000000000000000000000000000000000000000000000000000000008152600401610860906136b8565b60405180910390fd5b610874838383611c51565b505050565b610894838383604051806020016040528060008152506112a3565b505050565b606060006108a76007611f4a565b905060008060005b8381101561094f573373ffffffffffffffffffffffffffffffffffffffff16600b60006001846108df9190613707565b815260200190815260200160002060010160009054906101000a900473ffffffffffffffffffffffffffffffffffffffff1673ffffffffffffffffffffffffffffffffffffffff160361093c576001836109399190613707565b92505b80806109479061373b565b9150506108af565b5060008267ffffffffffffffff81111561096c5761096b61312b565b5b6040519080825280602002602001820160405280156109a557816020015b610992612b94565b81526020019060019003908161098a5790505b50905060005b84811015610b7a573373ffffffffffffffffffffffffffffffffffffffff16600b60006001846109db9190613707565b815260200190815260200160002060010160009054906101000a900473ffffffffffffffffffffffffffffffffffffffff1673ffffffffffffffffffffffffffffffffffffffff1603610b67576000600182610a379190613707565b90506000600b60008381526020019081526020016000209050806040518060a0016040529081600082015481526020016001820160009054906101000a900473ffffffffffffffffffffffffffffffffffffffff1673ffffffffffffffffffffffffffffffffffffffff1673ffffffffffffffffffffffffffffffffffffffff1681526020016002820160009054906101000a900473ffffffffffffffffffffffffffffffffffffffff1673ffffffffffffffffffffffffffffffffffffffff1673ffffffffffffffffffffffffffffffffffffffff168152602001600382015481526020016004820160009054906101000a900460ff161515151581525050848681518110610b4a57610b49613783565b5b6020026020010181905250600185610b629190613707565b945050505b8080610b729061373b565b9150506109ab565b508094505050505090565b600080610b9183611f58565b9050600073ffffffffffffffffffffffffffffffffffffffff168173ffffffffffffffffffffffffffffffffffffffff1603610c02576040517f08c379a0000000000000000000000000000000000000000000000000000000008152600401610bf9906137fe565b60405180910390fd5b80915050919050565b60008073ffffffffffffffffffffffffffffffffffffffff168273ffffffffffffffffffffffffffffffffffffffff1603610c7b576040517f08c379a0000000000000000000000000000000000000000000000000000000008152600401610c7290613890565b60405180910390fd5b600360008373ffffffffffffffffffffffffffffffffffffffff1673ffffffffffffffffffffffffffffffffffffffff168152602001908152602001600020549050919050565b6000610cce6007611f95565b6000610cda6007611f4a565b9050610ce63382611fab565b610cf081856121c8565b610cfa818461226c565b8091505092915050565b3373ffffffffffffffffffffffffffffffffffffffff16600b600084815260200190815260200160002060020160009054906101000a900473ffffffffffffffffffffffffffffffffffffffff1673ffffffffffffffffffffffffffffffffffffffff1614610da8576040517f08c379a0000000000000000000000000000000000000000000000000000000008152600401610d9f90613922565b60405180910390fd5b6009543414610dec576040517f08c379a0000000000000000000000000000000000000000000000000000000008152600401610de3906139b4565b60405180910390fd5b6000600b600084815260200190815260200160002060040160006101000a81548160ff02191690831515021790555080600b60008481526020019081526020016000206003018190555033600b600084815260200190815260200160002060010160006101000a81548173ffffffffffffffffffffffffffffffffffffffff021916908373ffffffffffffffffffffffffffffffffffffffff16021790555030600b600084815260200190815260200160002060020160006101000a81548173ffffffffffffffffffffffffffffffffffffffff021916908373ffffffffffffffffffffffffffffffffffffffff160217905550610eea600861246f565b610ef5333084611c51565b5050565b60606000610f076007611f4a565b90506000610f156008611f4a565b610f1f6007611f4a565b610f2991906139d4565b90506000808267ffffffffffffffff811115610f4857610f4761312b565b5b604051908082528060200260200182016040528015610f8157816020015b610f6e612b94565b815260200190600190039081610f665790505b50905060005b84811015611156573073ffffffffffffffffffffffffffffffffffffffff16600b6000600184610fb79190613707565b815260200190815260200160002060020160009054906101000a900473ffffffffffffffffffffffffffffffffffffffff1673ffffffffffffffffffffffffffffffffffffffff16036111435760006001826110139190613707565b90506000600b60008381526020019081526020016000209050806040518060a0016040529081600082015481526020016001820160009054906101000a900473ffffffffffffffffffffffffffffffffffffffff1673ffffffffffffffffffffffffffffffffffffffff1673ffffffffffffffffffffffffffffffffffffffff1681526020016002820160009054906101000a900473ffffffffffffffffffffffffffffffffffffffff1673ffffffffffffffffffffffffffffffffffffffff1673ffffffffffffffffffffffffffffffffffffffff168152602001600382015481526020016004820160009054906101000a900460ff16151515158152505084868151811061112657611125613783565b5b602002602001018190525060018561113e9190613707565b945050505b808061114e9061373b565b915050610f87565b508094505050505090565b606060018054611170906134f1565b80601f016020809104026020016040519081016040528092919081815260200182805461119c906134f1565b80156111e95780601f106111be576101008083540402835291602001916111e9565b820191906000526020600020905b8154815290600101906020018083116111cc57829003601f168201915b5050505050905090565b6112056111fe611afb565b83836124cb565b5050565b600a60009054906101000a900473ffffffffffffffffffffffffffffffffffffffff1673ffffffffffffffffffffffffffffffffffffffff163373ffffffffffffffffffffffffffffffffffffffff1614611299576040517f08c379a000000000000000000000000000000000000000000000000000000000815260040161129090613a7a565b60405180910390fd5b8060098190555050565b6112b46112ae611afb565b83611bbc565b6112f3576040517f08c379a00000000000000000000000000000000000000000000000000000000081526004016112ea906136b8565b60405180910390fd5b6112ff84848484612637565b50505050565b6000600b6000838152602001908152602001600020600301549050803414611362576040517f08c379a000000000000000000000000000000000000000000000000000000000815260040161135990613b0c565b60405180910390fd5b33600b600084815260200190815260200160002060020160006101000a81548173ffffffffffffffffffffffffffffffffffffffff021916908373ffffffffffffffffffffffffffffffffffffffff1602179055506001600b600084815260200190815260200160002060040160006101000a81548160ff0219169083151502179055506113f06008611f95565b6113fb303384611c51565b600a60009054906101000a900473ffffffffffffffffffffffffffffffffffffffff1673ffffffffffffffffffffffffffffffffffffffff166108fc6009549081150290604051600060405180830381858888f19350505050158015611465573d6000803e3d6000fd5b50600b600083815260200190815260200160002060010160009054906101000a900473ffffffffffffffffffffffffffffffffffffffff1673ffffffffffffffffffffffffffffffffffffffff166108fc349081150290604051600060405180830381858888f193505050501580156114e2573d6000803e3d6000fd5b5030600b600084815260200190815260200160002060010160006101000a81548173ffffffffffffffffffffffffffffffffffffffff021916908373ffffffffffffffffffffffffffffffffffffffff1602179055505050565b6060600061154a6007611f4a565b905060008060005b838110156115f2573373ffffffffffffffffffffffffffffffffffffffff16600b60006001846115829190613707565b815260200190815260200160002060020160009054906101000a900473ffffffffffffffffffffffffffffffffffffffff1673ffffffffffffffffffffffffffffffffffffffff16036115df576001836115dc9190613707565b92505b80806115ea9061373b565b915050611552565b5060008267ffffffffffffffff81111561160f5761160e61312b565b5b60405190808252806020026020018201604052801561164857816020015b611635612b94565b81526020019060019003908161162d5790505b50905060005b8481101561181d573373ffffffffffffffffffffffffffffffffffffffff16600b600060018461167e9190613707565b815260200190815260200160002060020160009054906101000a900473ffffffffffffffffffffffffffffffffffffffff1673ffffffffffffffffffffffffffffffffffffffff160361180a5760006001826116da9190613707565b90506000600b60008381526020019081526020016000209050806040518060a0016040529081600082015481526020016001820160009054906101000a900473ffffffffffffffffffffffffffffffffffffffff1673ffffffffffffffffffffffffffffffffffffffff1673ffffffffffffffffffffffffffffffffffffffff1681526020016002820160009054906101000a900473ffffffffffffffffffffffffffffffffffffffff1673ffffffffffffffffffffffffffffffffffffffff1673ffffffffffffffffffffffffffffffffffffffff168152602001600382015481526020016004820160009054906101000a900460ff1615151515815250508486815181106117ed576117ec613783565b5b60200260200101819052506001856118059190613707565b945050505b80806118159061373b565b91505061164e565b508094505050505090565b606061183382611ab0565b6000600660008481526020019081526020016000208054611853906134f1565b80601f016020809104026020016040519081016040528092919081815260200182805461187f906134f1565b80156118cc5780601f106118a1576101008083540402835291602001916118cc565b820191906000526020600020905b8154815290600101906020018083116118af57829003601f168201915b5050505050905060006118dd612693565b905060008151036118f2578192505050611935565b60008251111561192757808260405160200161190f929190613b68565b60405160208183030381529060405292505050611935565b611930846126aa565b925050505b919050565b6000600560008473ffffffffffffffffffffffffffffffffffffffff1673ffffffffffffffffffffffffffffffffffffffff16815260200190815260200160002060008373ffffffffffffffffffffffffffffffffffffffff1673ffffffffffffffffffffffffffffffffffffffff16815260200190815260200160002060009054906101000a900460ff16905092915050565b60007f80ac58cd000000000000000000000000000000000000000000000000000000007bffffffffffffffffffffffffffffffffffffffffffffffffffffffff1916827bffffffffffffffffffffffffffffffffffffffffffffffffffffffff19161480611a9957507f5b5e139f000000000000000000000000000000000000000000000000000000007bffffffffffffffffffffffffffffffffffffffffffffffffffffffff1916827bffffffffffffffffffffffffffffffffffffffffffffffffffffffff1916145b80611aa95750611aa882612712565b5b9050919050565b611ab98161277c565b611af8576040517f08c379a0000000000000000000000000000000000000000000000000000000008152600401611aef906137fe565b60405180910390fd5b50565b600033905090565b816004600083815260200190815260200160002060006101000a81548173ffffffffffffffffffffffffffffffffffffffff021916908373ffffffffffffffffffffffffffffffffffffffff160217905550808273ffffffffffffffffffffffffffffffffffffffff16611b7683610b85565b73ffffffffffffffffffffffffffffffffffffffff167f8c5be1e5ebec7d5bd14f71427d1e84f3dd0314c0f7b2291e5b200ac8c7c3b92560405160405180910390a45050565b600080611bc883610b85565b90508073ffffffffffffffffffffffffffffffffffffffff168473ffffffffffffffffffffffffffffffffffffffff161480611c0a5750611c09818561193a565b5b80611c4857508373ffffffffffffffffffffffffffffffffffffffff16611c308461062f565b73ffffffffffffffffffffffffffffffffffffffff16145b91505092915050565b8273ffffffffffffffffffffffffffffffffffffffff16611c7182610b85565b73ffffffffffffffffffffffffffffffffffffffff1614611cc7576040517f08c379a0000000000000000000000000000000000000000000000000000000008152600401611cbe90613bfe565b60405180910390fd5b600073ffffffffffffffffffffffffffffffffffffffff168273ffffffffffffffffffffffffffffffffffffffff1603611d36576040517f08c379a0000000000000000000000000000000000000000000000000000000008152600401611d2d90613c90565b60405180910390fd5b611d4383838360016127bd565b8273ffffffffffffffffffffffffffffffffffffffff16611d6382610b85565b73ffffffffffffffffffffffffffffffffffffffff1614611db9576040517f08c379a0000000000000000000000000000000000000000000000000000000008152600401611db090613bfe565b60405180910390fd5b6004600082815260200190815260200160002060006101000a81549073ffffffffffffffffffffffffffffffffffffffff02191690556001600360008573ffffffffffffffffffffffffffffffffffffffff1673ffffffffffffffffffffffffffffffffffffffff168152602001908152602001600020600082825403925050819055506001600360008473ffffffffffffffffffffffffffffffffffffffff1673ffffffffffffffffffffffffffffffffffffffff16815260200190815260200160002060008282540192505081905550816002600083815260200190815260200160002060006101000a81548173ffffffffffffffffffffffffffffffffffffffff021916908373ffffffffffffffffffffffffffffffffffffffff160217905550808273ffffffffffffffffffffffffffffffffffffffff168473ffffffffffffffffffffffffffffffffffffffff167fddf252ad1be2c89b69c2b068fc378daa952ba7f163c4a11628f55a4df523b3ef60405160405180910390a4611f4583838360016127c3565b505050565b600081600001549050919050565b60006002600083815260200190815260200160002060009054906101000a900473ffffffffffffffffffffffffffffffffffffffff169050919050565b6001816000016000828254019250508190555050565b600073ffffffffffffffffffffffffffffffffffffffff168273ffffffffffffffffffffffffffffffffffffffff160361201a576040517f08c379a000000000000000000000000000000000000000000000000000000000815260040161201190613cfc565b60405180910390fd5b6120238161277c565b15612063576040517f08c379a000000000000000000000000000000000000000000000000000000000815260040161205a90613d68565b60405180910390fd5b6120716000838360016127bd565b61207a8161277c565b156120ba576040517f08c379a00000000000000000000000000000000000000000000000000000000081526004016120b190613d68565b60405180910390fd5b6001600360008473ffffffffffffffffffffffffffffffffffffffff1673ffffffffffffffffffffffffffffffffffffffff16815260200190815260200160002060008282540192505081905550816002600083815260200190815260200160002060006101000a81548173ffffffffffffffffffffffffffffffffffffffff021916908373ffffffffffffffffffffffffffffffffffffffff160217905550808273ffffffffffffffffffffffffffffffffffffffff16600073ffffffffffffffffffffffffffffffffffffffff167fddf252ad1be2c89b69c2b068fc378daa952ba7f163c4a11628f55a4df523b3ef60405160405180910390a46121c46000838360016127c3565b5050565b6121d18261277c565b612210576040517f08c379a000000000000000000000000000000000000000000000000000000000815260040161220790613dfa565b60405180910390fd5b806006600084815260200190815260200160002090816122309190613fc6565b507ff8e1a15aba9398e019f0b49df1a4fde98ee17ae345cb5f6b5e2c27f5033e8ce7826040516122609190612f20565b60405180910390a15050565b600081116122af576040517f08c379a00000000000000000000000000000000000000000000000000000000081526004016122a6906140e4565b60405180910390fd5b60095434146122f3576040517f08c379a00000000000000000000000000000000000000000000000000000000081526004016122ea906139b4565b60405180910390fd5b6040518060a001604052808381526020013373ffffffffffffffffffffffffffffffffffffffff1681526020013073ffffffffffffffffffffffffffffffffffffffff16815260200182815260200160001515815250600b60008481526020019081526020016000206000820151816000015560208201518160010160006101000a81548173ffffffffffffffffffffffffffffffffffffffff021916908373ffffffffffffffffffffffffffffffffffffffff16021790555060408201518160020160006101000a81548173ffffffffffffffffffffffffffffffffffffffff021916908373ffffffffffffffffffffffffffffffffffffffff1602179055506060820151816003015560808201518160040160006101000a81548160ff02191690831515021790555090505061242c333084611c51565b817fdebdb32cb5230ab727c9c361b16fdb2015df225c10e6a3e7f60ecd5dc5be451633308460006040516124639493929190614104565b60405180910390a25050565b600081600001549050600081116124bb576040517f08c379a00000000000000000000000000000000000000000000000000000000081526004016124b290614195565b60405180910390fd5b6001810382600001819055505050565b8173ffffffffffffffffffffffffffffffffffffffff168373ffffffffffffffffffffffffffffffffffffffff1603612539576040517f08c379a000000000000000000000000000000000000000000000000000000000815260040161253090614201565b60405180910390fd5b80600560008573ffffffffffffffffffffffffffffffffffffffff1673ffffffffffffffffffffffffffffffffffffffff16815260200190815260200160002060008473ffffffffffffffffffffffffffffffffffffffff1673ffffffffffffffffffffffffffffffffffffffff16815260200190815260200160002060006101000a81548160ff0219169083151502179055508173ffffffffffffffffffffffffffffffffffffffff168373ffffffffffffffffffffffffffffffffffffffff167f17307eab39ab6107e8899845ad3d59bd9653f200f220920489ca2b5937696c318360405161262a9190612ca5565b60405180910390a3505050565b612642848484611c51565b61264e848484846127c9565b61268d576040517f08c379a000000000000000000000000000000000000000000000000000000000815260040161268490614293565b60405180910390fd5b50505050565b606060405180602001604052806000815250905090565b60606126b582611ab0565b60006126bf612693565b905060008151116126df576040518060200160405280600081525061270a565b806126e984612950565b6040516020016126fa929190613b68565b6040516020818303038152906040525b915050919050565b60007f01ffc9a7000000000000000000000000000000000000000000000000000000007bffffffffffffffffffffffffffffffffffffffffffffffffffffffff1916827bffffffffffffffffffffffffffffffffffffffffffffffffffffffff1916149050919050565b60008073ffffffffffffffffffffffffffffffffffffffff1661279e83611f58565b73ffffffffffffffffffffffffffffffffffffffff1614159050919050565b50505050565b50505050565b60006127ea8473ffffffffffffffffffffffffffffffffffffffff16612a1e565b15612943578373ffffffffffffffffffffffffffffffffffffffff1663150b7a02612813611afb565b8786866040518563ffffffff1660e01b81526004016128359493929190614308565b6020604051808303816000875af192505050801561287157506040513d601f19601f8201168201806040525081019061286e9190614369565b60015b6128f3573d80600081146128a1576040519150601f19603f3d011682016040523d82523d6000602084013e6128a6565b606091505b5060008151036128eb576040517f08c379a00000000000000000000000000000000000000000000000000000000081526004016128e290614293565b60405180910390fd5b805181602001fd5b63150b7a0260e01b7bffffffffffffffffffffffffffffffffffffffffffffffffffffffff1916817bffffffffffffffffffffffffffffffffffffffffffffffffffffffff191614915050612948565b600190505b949350505050565b60606000600161295f84612a41565b01905060008167ffffffffffffffff81111561297e5761297d61312b565b5b6040519080825280601f01601f1916602001820160405280156129b05781602001600182028036833780820191505090505b509050600082602001820190505b600115612a13578080600190039150507f3031323334353637383961626364656600000000000000000000000000000000600a86061a8153600a8581612a0757612a06614396565b5b049450600085036129be575b819350505050919050565b6000808273ffffffffffffffffffffffffffffffffffffffff163b119050919050565b600080600090507a184f03e93ff9f4daa797ed6e38ed64bf6a1f0100000000000000008310612a9f577a184f03e93ff9f4daa797ed6e38ed64bf6a1f0100000000000000008381612a9557612a94614396565b5b0492506040810190505b6d04ee2d6d415b85acef81000000008310612adc576d04ee2d6d415b85acef81000000008381612ad257612ad1614396565b5b0492506020810190505b662386f26fc100008310612b0b57662386f26fc100008381612b0157612b00614396565b5b0492506010810190505b6305f5e1008310612b34576305f5e1008381612b2a57612b29614396565b5b0492506008810190505b6127108310612b59576127108381612b4f57612b4e614396565b5b0492506004810190505b60648310612b7c5760648381612b7257612b71614396565b5b0492506002810190505b600a8310612b8b576001810190505b80915050919050565b6040518060a0016040528060008152602001600073ffffffffffffffffffffffffffffffffffffffff168152602001600073ffffffffffffffffffffffffffffffffffffffff168152602001600081526020016000151581525090565b6000604051905090565b600080fd5b600080fd5b60007fffffffff0000000000000000000000000000000000000000000000000000000082169050919050565b612c3a81612c05565b8114612c4557600080fd5b50565b600081359050612c5781612c31565b92915050565b600060208284031215612c7357612c72612bfb565b5b6000612c8184828501612c48565b91505092915050565b60008115159050919050565b612c9f81612c8a565b82525050565b6000602082019050612cba6000830184612c96565b92915050565b600081519050919050565b600082825260208201905092915050565b60005b83811015612cfa578082015181840152602081019050612cdf565b60008484015250505050565b6000601f19601f8301169050919050565b6000612d2282612cc0565b612d2c8185612ccb565b9350612d3c818560208601612cdc565b612d4581612d06565b840191505092915050565b60006020820190508181036000830152612d6a8184612d17565b905092915050565b6000819050919050565b612d8581612d72565b8114612d9057600080fd5b50565b600081359050612da281612d7c565b92915050565b600060208284031215612dbe57612dbd612bfb565b5b6000612dcc84828501612d93565b91505092915050565b600073ffffffffffffffffffffffffffffffffffffffff82169050919050565b6000612e0082612dd5565b9050919050565b612e1081612df5565b82525050565b6000602082019050612e2b6000830184612e07565b92915050565b612e3a81612d72565b82525050565b6000612e4b82612dd5565b9050919050565b612e5b81612e40565b82525050565b600060a082019050612e766000830188612e31565b612e836020830187612e52565b612e906040830186612e52565b612e9d6060830185612e31565b612eaa6080830184612c96565b9695505050505050565b612ebd81612df5565b8114612ec857600080fd5b50565b600081359050612eda81612eb4565b92915050565b60008060408385031215612ef757612ef6612bfb565b5b6000612f0585828601612ecb565b9250506020612f1685828601612d93565b9150509250929050565b6000602082019050612f356000830184612e31565b92915050565b600080600060608486031215612f5457612f53612bfb565b5b6000612f6286828701612ecb565b9350506020612f7386828701612ecb565b9250506040612f8486828701612d93565b9150509250925092565b600081519050919050565b600082825260208201905092915050565b6000819050602082019050919050565b612fc381612d72565b82525050565b612fd281612e40565b82525050565b612fe181612c8a565b82525050565b60a082016000820151612ffd6000850182612fba565b5060208201516130106020850182612fc9565b5060408201516130236040850182612fc9565b5060608201516130366060850182612fba565b5060808201516130496080850182612fd8565b50505050565b600061305b8383612fe7565b60a08301905092915050565b6000602082019050919050565b600061307f82612f8e565b6130898185612f99565b935061309483612faa565b8060005b838110156130c55781516130ac888261304f565b97506130b783613067565b925050600181019050613098565b5085935050505092915050565b600060208201905081810360008301526130ec8184613074565b905092915050565b60006020828403121561310a57613109612bfb565b5b600061311884828501612ecb565b91505092915050565b600080fd5b600080fd5b7f4e487b7100000000000000000000000000000000000000000000000000000000600052604160045260246000fd5b61316382612d06565b810181811067ffffffffffffffff821117156131825761318161312b565b5b80604052505050565b6000613195612bf1565b90506131a1828261315a565b919050565b600067ffffffffffffffff8211156131c1576131c061312b565b5b6131ca82612d06565b9050602081019050919050565b82818337600083830152505050565b60006131f96131f4846131a6565b61318b565b90508281526020810184848401111561321557613214613126565b5b6132208482856131d7565b509392505050565b600082601f83011261323d5761323c613121565b5b813561324d8482602086016131e6565b91505092915050565b6000806040838503121561326d5761326c612bfb565b5b600083013567ffffffffffffffff81111561328b5761328a612c00565b5b61329785828601613228565b92505060206132a885828601612d93565b9150509250929050565b600080604083850312156132c9576132c8612bfb565b5b60006132d785828601612d93565b92505060206132e885828601612d93565b9150509250929050565b6132fb81612c8a565b811461330657600080fd5b50565b600081359050613318816132f2565b92915050565b6000806040838503121561333557613334612bfb565b5b600061334385828601612ecb565b925050602061335485828601613309565b9150509250929050565b600067ffffffffffffffff8211156133795761337861312b565b5b61338282612d06565b9050602081019050919050565b60006133a261339d8461335e565b61318b565b9050828152602081018484840111156133be576133bd613126565b5b6133c98482856131d7565b509392505050565b600082601f8301126133e6576133e5613121565b5b81356133f684826020860161338f565b91505092915050565b6000806000806080858703121561341957613418612bfb565b5b600061342787828801612ecb565b945050602061343887828801612ecb565b935050604061344987828801612d93565b925050606085013567ffffffffffffffff81111561346a57613469612c00565b5b613476878288016133d1565b91505092959194509250565b6000806040838503121561349957613498612bfb565b5b60006134a785828601612ecb565b92505060206134b885828601612ecb565b9150509250929050565b7f4e487b7100000000000000000000000000000000000000000000000000000000600052602260045260246000fd5b6000600282049050600182168061350957607f821691505b60208210810361351c5761351b6134c2565b5b50919050565b7f4552433732313a20617070726f76616c20746f2063757272656e74206f776e6560008201527f7200000000000000000000000000000000000000000000000000000000000000602082015250565b600061357e602183612ccb565b915061358982613522565b604082019050919050565b600060208201905081810360008301526135ad81613571565b9050919050565b7f4552433732313a20617070726f76652063616c6c6572206973206e6f7420746f60008201527f6b656e206f776e6572206f7220617070726f76656420666f7220616c6c000000602082015250565b6000613610603d83612ccb565b915061361b826135b4565b604082019050919050565b6000602082019050818103600083015261363f81613603565b9050919050565b7f4552433732313a2063616c6c6572206973206e6f7420746f6b656e206f776e6560008201527f72206f7220617070726f76656400000000000000000000000000000000000000602082015250565b60006136a2602d83612ccb565b91506136ad82613646565b604082019050919050565b600060208201905081810360008301526136d181613695565b9050919050565b7f4e487b7100000000000000000000000000000000000000000000000000000000600052601160045260246000fd5b600061371282612d72565b915061371d83612d72565b9250828201905080821115613735576137346136d8565b5b92915050565b600061374682612d72565b91507fffffffffffffffffffffffffffffffffffffffffffffffffffffffffffffffff8203613778576137776136d8565b5b600182019050919050565b7f4e487b7100000000000000000000000000000000000000000000000000000000600052603260045260246000fd5b7f4552433732313a20696e76616c696420746f6b656e2049440000000000000000600082015250565b60006137e8601883612ccb565b91506137f3826137b2565b602082019050919050565b60006020820190508181036000830152613817816137db565b9050919050565b7f4552433732313a2061646472657373207a65726f206973206e6f74206120766160008201527f6c6964206f776e65720000000000000000000000000000000000000000000000602082015250565b600061387a602983612ccb565b91506138858261381e565b604082019050919050565b600060208201905081810360008301526138a98161386d565b9050919050565b7f596f7520617265206e6f7420746865206f776e6572206f66207468697320746f60008201527f6b656e0000000000000000000000000000000000000000000000000000000000602082015250565b600061390c602383612ccb565b9150613917826138b0565b604082019050919050565b6000602082019050818103600083015261393b816138ff565b9050919050565b7f5072696365206d75737420626520657175616c20746f206c697374696e67207060008201527f7269636500000000000000000000000000000000000000000000000000000000602082015250565b600061399e602483612ccb565b91506139a982613942565b604082019050919050565b600060208201905081810360008301526139cd81613991565b9050919050565b60006139df82612d72565b91506139ea83612d72565b9250828203905081811115613a0257613a016136d8565b5b92915050565b7f4f6e6c79206f776e6572206f6620746865206d61726b6574706c61636520636160008201527f6e206368616e676520746865206c697374696e67207072696365000000000000602082015250565b6000613a64603a83612ccb565b9150613a6f82613a08565b604082019050919050565b60006020820190508181036000830152613a9381613a57565b9050919050565b7f506c65617365207375626d6974207468652061736b696e67207072696365206960008201527f6e206f7264657220746f20636f6d706c65746520746865207075726368617365602082015250565b6000613af6604083612ccb565b9150613b0182613a9a565b604082019050919050565b60006020820190508181036000830152613b2581613ae9565b9050919050565b600081905092915050565b6000613b4282612cc0565b613b4c8185613b2c565b9350613b5c818560208601612cdc565b80840191505092915050565b6000613b748285613b37565b9150613b808284613b37565b91508190509392505050565b7f4552433732313a207472616e736665722066726f6d20696e636f72726563742060008201527f6f776e6572000000000000000000000000000000000000000000000000000000602082015250565b6000613be8602583612ccb565b9150613bf382613b8c565b604082019050919050565b60006020820190508181036000830152613c1781613bdb565b9050919050565b7f4552433732313a207472616e7366657220746f20746865207a65726f2061646460008201527f7265737300000000000000000000000000000000000000000000000000000000602082015250565b6000613c7a602483612ccb565b9150613c8582613c1e565b604082019050919050565b60006020820190508181036000830152613ca981613c6d565b9050919050565b7f4552433732313a206d696e7420746f20746865207a65726f2061646472657373600082015250565b6000613ce6602083612ccb565b9150613cf182613cb0565b602082019050919050565b60006020820190508181036000830152613d1581613cd9565b9050919050565b7f4552433732313a20746f6b656e20616c7265616479206d696e74656400000000600082015250565b6000613d52601c83612ccb565b9150613d5d82613d1c565b602082019050919050565b60006020820190508181036000830152613d8181613d45565b9050919050565b7f45524337323155524953746f726167653a2055524920736574206f66206e6f6e60008201527f6578697374656e7420746f6b656e000000000000000000000000000000000000602082015250565b6000613de4602e83612ccb565b9150613def82613d88565b604082019050919050565b60006020820190508181036000830152613e1381613dd7565b9050919050565b60008190508160005260206000209050919050565b60006020601f8301049050919050565b600082821b905092915050565b600060088302613e7c7fffffffffffffffffffffffffffffffffffffffffffffffffffffffffffffffff82613e3f565b613e868683613e3f565b95508019841693508086168417925050509392505050565b6000819050919050565b6000613ec3613ebe613eb984612d72565b613e9e565b612d72565b9050919050565b6000819050919050565b613edd83613ea8565b613ef1613ee982613eca565b848454613e4c565b825550505050565b600090565b613f06613ef9565b613f11818484613ed4565b505050565b5b81811015613f3557613f2a600082613efe565b600181019050613f17565b5050565b601f821115613f7a57613f4b81613e1a565b613f5484613e2f565b81016020851015613f63578190505b613f77613f6f85613e2f565b830182613f16565b50505b505050565b600082821c905092915050565b6000613f9d60001984600802613f7f565b1980831691505092915050565b6000613fb68383613f8c565b9150826002028217905092915050565b613fcf82612cc0565b67ffffffffffffffff811115613fe857613fe761312b565b5b613ff282546134f1565b613ffd828285613f39565b600060209050601f831160018114614030576000841561401e578287015190505b6140288582613faa565b865550614090565b601f19841661403e86613e1a565b60005b8281101561406657848901518255600182019150602085019450602081019050614041565b86831015614083578489015161407f601f891682613f8c565b8355505b6001600288020188555050505b505050505050565b7f5072696365206d757374206265206174206c6561737420312077656900000000600082015250565b60006140ce601c83612ccb565b91506140d982614098565b602082019050919050565b600060208201905081810360008301526140fd816140c1565b9050919050565b60006080820190506141196000830187612e07565b6141266020830186612e07565b6141336040830185612e31565b6141406060830184612c96565b95945050505050565b7f436f756e7465723a2064656372656d656e74206f766572666c6f770000000000600082015250565b600061417f601b83612ccb565b915061418a82614149565b602082019050919050565b600060208201905081810360008301526141ae81614172565b9050919050565b7f4552433732313a20617070726f766520746f2063616c6c657200000000000000600082015250565b60006141eb601983612ccb565b91506141f6826141b5565b602082019050919050565b6000602082019050818103600083015261421a816141de565b9050919050565b7f4552433732313a207472616e7366657220746f206e6f6e20455243373231526560008201527f63656976657220696d706c656d656e7465720000000000000000000000000000602082015250565b600061427d603283612ccb565b915061428882614221565b604082019050919050565b600060208201905081810360008301526142ac81614270565b9050919050565b600081519050919050565b600082825260208201905092915050565b60006142da826142b3565b6142e481856142be565b93506142f4818560208601612cdc565b6142fd81612d06565b840191505092915050565b600060808201905061431d6000830187612e07565b61432a6020830186612e07565b6143376040830185612e31565b818103606083015261434981846142cf565b905095945050505050565b60008151905061436381612c31565b92915050565b60006020828403121561437f5761437e612bfb565b5b600061438d84828501614354565b91505092915050565b7f4e487b7100000000000000000000000000000000000000000000000000000000600052601260045260246000fdfea26469706673582212209d154a90ab3c5be42e9117a2931465184b641e6187c45d784647d0be757d1a5e64736f6c63430008130033",
  "linkReferences": {},
  "deployedLinkReferences": {}
}